:100000000C9434000C9446000C9446000C9446006A
:100010000C9446000C9446000C9446000C94460048
:100020000C9446000C9446000C9446000C94460038
:100030000C9446000C9446000C9446000C94460028
:100040000C9446000C9446000C9446000C94460018
:100050000C9446000C9446000C9446000C94460008
:100060000C940A010C94460011241FBECFEFD8E077
:10007000DEBFCDBF23E0A0E0B1E001C01D92A338F8
:10008000B207E1F70E94F8000C9497010C9400006D
:10009000882311F022E001C021E090E019C085B171
:1000A000826085B93FEF41EE84E0315040408040AE
:1000B000E1F700C0000085B18D7F85B93FEF41EECB
:1000C00084E0315040408040E1F700C000009F5F75
:1000D000921728F30895CF93DF93D82FC0E004C080
:1000E00080E00E944800CF5FCD17D0F3DF91CF9121
:1000F0000895909100019F5F9093000190910001FD
:10010000903510F010920001E0910001E695E6951F
:10011000E695F0E0909100019770EE0FFF1FEE0F53
:10012000FF1FEE0FFF1FEF5FFE4FE90FF11D8083F2
:100130000895F89482E28093BA0085EC8093BC0025
:100140007894089580910001873018F4809181039C
:1001500008952091000130E027503109C901992309
:100160000CF4079695958795959587959595879520
:1001700008950E94A200909182038917D1F31091F3
:1001800082031F5F80918103811708F410E0C12F63
:10019000D0E0CC0FDD1FCC0FDD1FCC0FDD1FCF5FFC
:1001A000DE4F688179818A819B810E943F01862F81
:1001B0000E946B002FEF89E698E12150804090402B
:1001C000E1F700C000006C817D818E819F810E94DB
:1001D0003F01862F0E946B002FEF89E698E12150A6
:1001E00080409040E1F700C0000010938203C1CF2F
:1001F00089E0809381039FE49093000180938203C0
:1002000084B1826084B90E94990084E00E946B00EE
:100210000E94B9001F920F920FB60F9211242F93D4
:100220003F934F935F936F937F938F939F93AF937E
:10023000BF93EF93FF938091B900887F803829F4B2
:100240008091BB000E94790006C08091B900887F30
:1002500011F41092BC0085EC8093BC00FF91EF91EB
:10026000BF91AF919F918F917F916F915F914F91CE
:100270003F912F910F900FBE0F901F9018950E94E5
:10028000760188F09F5798F0B92F9927B751B0F0B1
:10029000E1F0660F771F881F991F1AF0BA95C9F70A
:1002A00014C0B13091F00E949001B1E008950C9417
:1002B0009001672F782F8827B85F39F0B93FCCF3CA
:1002C000869577956795B395D9F73EF49095809587
:1002D000709561957F4F8F4F9F4F089557FD9058B0
:1002E000440F551F59F05F3F71F04795880F97FBFA
:1002F000991F61F09F3F79F08795089512161306B4
:100300001406551FF2CF4695F1DF08C016161706E2
:100310001806991FF1CF8695710561050894089517
:10032000E894BB2766277727CB0197F90895F894BF
:02033000FFCFFD
:00000001FF
