:100000000C9434000C9446000C9446000C9446006A
:100010000C9446000C9446000C9446000C94460048
:100020000C9446000C9446000C9446000C94460038
:100030000C9446000C9446000C9446000C94460028
:100040000C9446000C9446000C9446000C94460018
:100050000C9446000C9446000C9446000C94460008
:100060000C94E7010C94460011241FBECFEFD8E09A
:10007000DEBFCDBF25E0A0E0B1E001C01D92A430FD
:10008000B207E1F70E94D5010C944A020C940000DB
:10009000882311F022E001C021E090E013C085B177
:1000A000826085B9EFE4F3EC3197F1F700C000000E
:1000B00085B18D7F85B9EFE4F3EC3197F1F700C09E
:1000C00000009F5F921758F30895CF92DF92EF924E
:1000D000FF92CF93C82F0F2EF7E0CF2ED12CE12C1B
:1000E000F12CF02D19C081E090E00C2C02C0880F9B
:1000F000991F0A94E2F78C230E9448002FE38DE0B9
:1001000093E0215080409040E1F700C0000021E0E2
:10011000C21AD108E108F108FF202CF7CF91FF9017
:10012000EF90DF90CF9008950F931F9340910001BF
:10013000509101016091020170910301772324F431
:100140004D5F5F4F6F4F7F4F7595679557954795FB
:10015000759567955795479550E00091000110916E
:100160000101209102013091030103701127222720
:100170003078332364F401501109210931090C6FDF
:100180001F6F2F6F3F6F0F5F1F4F2F4F3F4F440F5A
:10019000551F440F551F4C5F5E4FFA01E00FF11FD2
:1001A00080838091000190910101A0910201B091A2
:1001B00003010196A11DB11D8093000190930101DF
:1001C000A0930201B09303011F910F910895F89439
:1001D00082E28093BA0085EC8093BC007894089505
:1001E0008091000190910101A0910201B091030161
:1001F0000497A105B1050CF45AC0809100019091BB
:100200000101A0910201B091030183709927AA27EF
:10021000BB27892B8A2B8B2B09F04BC080910001C7
:1002200090910101A0910201B0910301BB231CF444
:100230000396A11DB11DB595A79597958795B59581
:10024000A79597958795815090E0FC01EE0FFF1FD1
:10025000EE0FFF1FEC5FFE4F20812F3F01F5FC01E9
:10026000EE0FFF1FEE0FFF1FEC5FFE4F21812F3FB0
:10027000C1F4FC01EE0FFF1FEE0FFF1FEC5FFE4FFE
:1002800022812F3F81F4880F991F880F991FFC014D
:10029000EC5FFE4F83818F3F41F080E0089580E066
:1002A000089580E0089580E0089581E0089580E059
:1002B000089580E00895681708F4862F08950E9435
:1002C000F0008823E1F38091000190910101A09159
:1002D0000201B0910301BB231CF40396A11DB11DC3
:1002E000BC01CD01959587957795679595958795EF
:1002F00077956795062F10920001109201011092D8
:1003000002011092030183E00E945B01F82E10E0CD
:1003100038C0C12FD0E0FE01EE0FFF1FEE0FFF1F10
:10032000EC5FFE4F60817181828193812AE939E916
:1003300049E450E40E941C028823A4F4CC0FDD1F82
:10034000CC0FDD1FCC5FDE4F688179818A819B8174
:100350002CEE31E548E450E40E944502181624F0E2
:1003600080E003C080E001C081E00E9448002FE3EC
:100370008DE093E0215080409040E1F700C0000004
:100380001F5F1F1530F22FE382E49FE02150804071
:100390009040E1F700C00000C0E004C080E00E948F
:1003A0004800CF5FC017D0F38ACF1092000110929F
:1003B0000101109202011092030184B1826084B99C
:1003C0000E94E70082E40E9465000E945F011F9284
:1003D0000F920FB60F9211242F933F934F935F9379
:1003E0006F937F938F939F93AF93BF93EF93FF93FD
:1003F0008091B900887F803829F48091BB000E94E9
:10040000940006C08091B900887F11F41092BC005E
:1004100085EC8093BC00FF91EF91BF91AF919F91CC
:100420008F917F916F915F914F913F912F910F909D
:100430000FBE0F901F9018950E94210208F481E0D2
:100440000895990F0008550FAA0BE0E8FEEF161665
:100450001706E807F907C0F012161306E407F507B8
:1004600098F0621B730B840B950B39F40A2661F02C
:10047000232B242B252B21F408950A2609F4A140CF
:10048000A6958FEF811D811D08950E94210208F419
:080490008FEF0895F894FFCFEF
:00000001FF
